:1000000000308A004028000022308400831300085A
:10001000031917280230F800F701F70B0D28F80B29
:100020000C289730F700F70B1328800B0A280800DC
:1000300083168810831288140230A100FA30A200BF
:100040000420A10B1E28831688108312881002300A
:10005000A100FA30A2000420A10B29280800831671
:1000600088010330831288006430A20004208316C4
:1000700088010130831288006430A2000420080047
:1000800003081F398300FF30A000831603170908F7
:10009000C039890003131F129F1200300317880014
:1000A00083128701880189018313003083160313AB
:1000B00087008312A000831688008312A000831695
:1000C0008701831287018316880183128801A000AB
:1000D000831687010230831287006430A200042057
:1000E00018200030A0008316870183128701643036
:1000F000A200042018200030A000831687010F30D2
:10010000831287006430A200042018200030A00071
:10011000831687010530831287006430A200042013
:100120002F200030A000831687010530831287003E
:100130006430A20004202F200030A0008316870125
:100140000530831287006430A20004202F20003085
:10015000A000831687010430831287006430A20058
:1001600004202F200030A000831687010530831261
:1001700087006430A20004202F200030A0008316E6
:100180008701831287016430A20004202F206300BE
:04400E00E22FFF3F5F
:00000001FF
;PIC16F887
;CRC=7B32  CREATED="14-mar.-18 16:32"
