:1000000001308A00392900000A108A100A1182077B
:1000100028340C3401340634C837EC30A026753748
:10002000E437A02A542800002630840083130008F7
:10003000031927280230F800F701F70B1D28F80BE9
:100040001C289730F700F70B2328800B1A2808008C
:100050002D0EF039F7000F300805770488000000F6
:10006000081432283328081008000808F700080E82
:100070000F39F80008008316081088100811831241
:1000800088100F3083160805F03888008312081591
:1000900000000814000035207808AD0008100000AA
:1000A0000814522835207808AC0008100F30831649
:1000B0000805880083122D0EF700F030F705770849
:1000C0002C04F8007808AC00AC1B41282A1C8810CE
:1000D0002A18881400000811000008102B0EAC002C
:1000E0000F30AC052C08AD0028202B080F39AC00D0
:1000F000AD00282008000F3083160805880008107E
:100100008810081183128810081108100F30A600FB
:1001100014200130A1002108033C031C9728033060
:10012000AD0028200530A6001420A10A8B2802303B
:10013000AD0028200530A6001420A1012108033CB1
:10014000031CAB2821080420A200AA012208AB004E
:100150003B20A10A9E288A110A125829270BB12890
:10016000B4284030A800B528A80101302602A8070D
:1001700028088038A900AA012908AB003B20080004
:100180002508073A0319CE280B3A0319D328063A53
:100190000319DB28023A0319E128E6280130A600FA
:1001A000A700AE20EB28AA010130AB003B200230B3
:1001B000A6001420EB280130A6000230A700AE20D4
:1001C000EB28AA011030AB003B20EB280130AA003D
:1001D0002508AB003B2008000B08A1008B138316F9
:1001E00003178C170C140000000083120C087F39D1
:1001F000031933290313A20003170D080313A300E7
:1002000003170F080313A4002208A500C020230829
:1002100003178D000313240803178F0083168C1710
:100220000C140000000083120C0D0E0D7F39031911
:1002300033290313A20003170D080313A3000317A8
:100240000F080313A4002208A500C02023080317E9
:100250008D000313240803178F008D0A03198F0ADA
:100260000313EF2803170313A11B8B178A110A121C
:100270005F2903081F398300713083168F000F0830
:1002800003170908C039890003131F129F12003099
:100290000317880083128701880189018313713055
:1002A000831603138F000F080030880083127B2809
:1002B0000C3003178D0000308F000313EC2863000F
:04400E00F42CFF3F50
:00000001FF
;PIC16F887
;CRC=7BEC  CREATED="17-mar.-18 16:05"
