:1000000000308A0038280000213084008313000863
:10001000031917280230F800F701F70B0D28F80B29
:100020000C289730F700F70B1328800B0A280800DC
:1000300083168810831288146430A100042083166C
:100040008810831288106430A100042008008316F1
:1000500088010330831288006430A10004208316D5
:1000600088010130831288006430A1000420080058
:1000700003081F398300713083168F000F080317A0
:100080000908C039890003131F129F12003003179B
:1000900088008312870188018901831371308316D8
:1000A00003138F000F08003086008800860183123A
:1000B00086018316880183128801831686013A30EF
:1000C000831286006430A100042018208316860164
:1000D0000F30831286006430A1000420182083169C
:1000E00086015530831286002720831686015430FE
:1000F00083128600272083168601503083128600E3
:040100002720630051
:04400E00F42CFF3F50
:00000001FF
;PIC16F887
;CRC=4874  CREATED="17-mar.-18 16:05"
