:1000000000308A002C28000021308400831300086F
:10001000031917280230F800F701F70B0D28F80B29
:100020000C289730F700F70B1328800B0A280800DC
:1000300088146430A100042088106430A1000420DA
:100040000800033088003230A1000420013088000D
:100050003230A1000420080003081F3983007130EA
:1000600083168F000F0803170908C039890003138E
:100070001F129F1200300317880083128701880126
:10008000890183137130831603138F000F0800302A
:100090008700880083128701880120308700643040
:1000A000A1000420182087016430A100042018203A
:1000B000F03087006430A100042018205030870001
:1000C0006430A10004202120503087006430A1005A
:1000D00004202120503087006430A100042021201A
:1000E000403087006430A100042021205030870078
:1000F0006430A1000420212087016430A100042085
:040100002120630057
:04400E00F42CFF3F50
:00000001FF
;PIC16F887
;CRC=E30B  CREATED="17-mar.-18 16:00"
