:1000000001308A00612900000A108A100A11820753
:1000100028340C3401340634C837EC30A026753748
:10002000E4370000263084008313000803192528D4
:100030000230F800F701F70B1B28F80B1A2897304D
:10004000F700F70B2128800B182808002D0EF03937
:10005000F7000F30060577048600000008148316A9
:1000600008103228332883120810831608108312D0
:1000700008000608F700060E0F39F800080083167E
:1000800008108810081183128810831688100F300A
:100090000605F03886008312081583160811000043
:1000A0008312081483160810000083123920780880
:1000B000AD00081083160810000083120814831680
:1000C00008106228831239207808AC0008108316C3
:1000D00008100F300605860083122D0EF700F03051
:1000E000F70577082C04F8007808AC00AC1F7A28D4
:1000F00083164728AA08031D7F28881080288814A3
:10010000831688100000831208118316081100005E
:10011000831208108316081083122B0EAC000F30C8
:10012000AC052C08AD0026202B080F39AC00AD0023
:10013000262008000F308316060586000810881058
:1001400008118312881083168810831208118316F1
:10015000081183120810831608100F308312A600AE
:1001600012200130A1002108033C031CBF280330EA
:10017000AD0026200530A6001220A10AB3280230C7
:10018000AD0026200530A6001220A1012108033C65
:10019000031CD32821080420A200AA012208AB00D6
:1001A0003F20A10AC6288A110A127B29270BD928C9
:1001B000DC284030A800DD28A80101302602A8076D
:1001C00028088038A900AA012908AB003F200800B0
:1001D0002508073A0319F6280B3A0319FB28063AB3
:1001E00003190329023A031909290E290130A6002F
:1001F000A700D6201329AA010130AB003F2002300E
:10020000A600122013290130A6000230A700D62034
:100210001329AA011030AB003F2013290130AA0096
:100220002508AB003F2008000B08A1008B138316A4
:1002300003178C170C140000000083120C087F3980
:1002400003195B290313A20003170D080313A3006E
:1002500003170F080313A4002208A500E8202308B1
:1002600003178D000313240803178F0083168C17C0
:100270000C140000000083120C0D0E0D7F390319C1
:100280005B290313A20003170D080313A300031730
:100290000F080313A4002208A500E8202308031771
:1002A0008D000313240803178F008D0A03198F0A8A
:1002B0000313172903170313A11B8B178A110A12A3
:1002C000822903081F398300831603170908C039E0
:1002D000890003131F129F12003003178800831236
:1002E0008701880189018313003083160313860078
:1002F000880083129A280C3003178D0000308F007D
:0603000003131429630041
:04400E00E72FFF3F5A
:00000001FF
;PIC16F887
;CRC=EFAB  CREATED="16-mar.-18 01:15"
