:1000000001308A00632900000A108A100A11820751
:1000100028340C3401340634C837EC30A026753748
:10002000E437A02A542800002630840083130008F7
:10003000031927280230F800F701F70B1D28F80BE9
:100040001C289730F700F70B2328800B1A2808008C
:100050002D0EF039F7000F300605770486000000FA
:1000600008148316081034283528831208108316C4
:100070000810831208000608F700060E0F39F80072
:100080000800831608108810081183128810831640
:1000900088100F300605F038860083120815831685
:1000A0000811000083120814831608100000831240
:1000B0003B207808AD00081083160810000083125A
:1000C000081483160810642883123B207808AC00BB
:1000D0000810831608100F300605860083122D0EB7
:1000E000F700F030F70577082C04F8007808AC002A
:1000F000AC1F7C2883164928AA08031D8128881074
:100100008228881483168810000083120811831631
:1001100008110000831208108316081083122B0E9A
:10012000AC000F30AC052C08AD0028202B080F398F
:10013000AC00AD00282008000F30831606058600AD
:1001400008108810081183128810831688108312F3
:1001500008118316081183120810831608100F3037
:100160008312A60014200130A1002108033C031CC7
:10017000C1280330AD0028200530A6001420A10AB4
:10018000B5280230AD0028200530A6001420A101BA
:100190002108033C031CD52821080420A200AA0141
:1001A0002208AB004120A10AC8288A110A1283291B
:1001B000270BDB28DE284030A800DF28A80101300B
:1001C0002602A80728088038A900AA012908AB0040
:1001D000412008002508073A0319F8280B3A0319AB
:1001E000FD28063A03190529023A03190B2910299B
:1001F0000130A600A700D8201529AA010130AB00C4
:1002000041200230A600142015290130A60002303A
:10021000A700D8201529AA011030AB0041201529CC
:100220000130AA002508AB00412008000B08A100FE
:100230008B13831603178C170C1400000000831215
:100240000C087F3903195D290313A20003170D0859
:100250000313A30003170F080313A4002208A5002B
:10026000EA20230803178D000313240803178F00C7
:1002700083168C170C140000000083120C0D0E0D59
:100280007F3903195D290313A20003170D08031317
:10029000A30003170F080313A4002208A500EA20F7
:1002A000230803178D000313240803178F008D0AFA
:1002B00003198F0A0313192903170313A11B8B17A3
:1002C0008A110A128A2903081F39830071308316A4
:1002D0008F000F0803170908C039890003131F1284
:1002E0009F1200300317880083128701880189015B
:1002F00083137130831603138F000F0800308600BC
:10030000880083129C280C3003178D0000308F006A
:060310000313162963002F
:04400E00F42CFF3F50
:00000001FF
;PIC16F887
;CRC=C427  CREATED="17-mar.-18 16:05"
