:1000000001308A00372900000A108A100A1182077D
:1000100028340C3401340634C837EC30A026753748
:10002000E4370000263084008313000803192528D4
:100030000230F800F701F70B1B28F80B1A2897304D
:10004000F700F70B2128800B182808002D0EF03937
:10005000F7000F30080577048800000008143028E6
:100060003128081008000808F700080E0F39F800BA
:1000700008008316081088100811831288100F30AA
:1000800083160805F038880083120815000008144C
:10009000000033207808AD00081000000814502834
:1000A00033207808AC0008100F308316080588004C
:1000B00083122D0EF700F030F70577082C04F800B6
:1000C0007808AC00AC1B3F282A1C88102A1888141A
:1000D00000000811000008102B0EAC000F30AC051A
:1000E0002C08AD0026202B080F39AC00AD002620CF
:1000F00008000F30831608058800081088100811C2
:1001000083128810081108100F30A6001220013049
:10011000A1002108033C031C95280330AD002620D4
:100120000530A6001220A10A89280230AD00262041
:100130000530A6001220A1012108033C031CA928B8
:1001400021080420A200AA012208AB003920A10A3C
:100150009C288A110A124C29270BAF28B22840305C
:10016000A800B328A80101302602A8072808803873
:10017000A900AA012908AB00392008002508073A80
:100180000319CC280B3A0319D128063A0319D928A8
:10019000023A0319DF28E4280130A600A700AC20AA
:1001A000E928AA010130AB0039200230A600122054
:1001B000E9280130A6000230A700AC20E928AA01F6
:1001C0001030AB003920E9280130AA002508AB0027
:1001D000392008000B08A1008B13831603178C1716
:1001E0000C140000000083120C087F390319312918
:1001F0000313A20003170D080313A30003170F082E
:100200000313A4002208A500BE20230803178D00B5
:100210000313240803178F0083168C170C14000097
:10022000000083120C0D0E0D7F39031931290313C1
:10023000A20003170D080313A30003170F080313ED
:10024000A4002208A500BE20230803178D00031375
:10025000240803178F008D0A03198F0A0313ED2852
:1002600003170313A11B8B178A110A1253290308C2
:100270001F398300831603170908C0398900031347
:100280001F129F1200300317880083128701880114
:1002900089018313031379280C3003178D00003074
:0802A0008F000313EA2863003C
:04400E00E72FFF3F5A
:00000001FF
;PIC16F887
;CRC=C82E  CREATED="14-mar.-18 12:04"
