:1000000000308A0039280000213084008313000862
:10001000031917280230F800F701F70B0D28F80B29
:100020000C289730F700F70B1328800B0A280800DC
:10003000831688010230831288006430A1000420F6
:1000400083168801831288016430A100042008000F
:10005000831688010330831288006430A1000420D5
:10006000831688010130831288006430A1000420C7
:10007000080003081F398300FF30A0008316031710
:100080000908C039890003131F129F12003003179B
:100090008800831287018801890183130030831649
:1000A000031387008312A000831688008312A00028
:1000B00083168701831287018316880183128801C2
:1000C000A000831687010230831287006430A100EC
:1000D000042018200030A0008316870183128701B6
:1000E0006430A100042018200030A000831687018E
:1000F0000F30831287006430A100042018200030E4
:10010000A000831687010530831287006430A100A8
:10011000042028200030A0008316870105308312B8
:1001200087006430A100042028200030A00083163E
:1001300087010530831287006430A1000420282045
:100140000030A000831687010430831287006430DA
:10015000A100042028200030A0008316870105306C
:10016000831287006430A100042028200030A00002
:1001700083168701831287016430A10004202820A0
:0201800063001A
:04400E00E22FFF3F5F
:00000001FF
;PIC16F887
;CRC=0CCD  CREATED="07-mar.-18 23:31"
