:020000001429C1
:0E000600213083120313FD00FD0B07280800B4
:06001400000000000800DE
:10001A000F3083120313FC004730FD00FD0B132839
:0A002A00FC0B132800000000080082
:1000340083120313C71B2028861121288615471B0A
:100044002528061126280615C71A2A2886102B28C3
:100054008614471A2F28061030280614401834280E
:1000640006163528061286160A208612C7193C2859
:1000740086113D2886154719412806114228061580
:10008400C718462886104728861447184B28061098
:100094004C280614401850280616512806128616B5
:1000A4000A208612401C58280D20592803200800D5
:0E00B400831203133F088A003E0882000800F2
:1000C2008312031340104608C7001A204014080088
:1000D2007B28803083120313C2008E28C030C200F6
:1000E2008E289430C2008E28D430C2008E288030F0
:1000F200C2008E28831203134208013A03196A28A8
:100102004208023A03196F284208033A0319722877
:100112004208043A0319752878284303F00042087C
:10012200F0077008C2007008C7001A204010C5010D
:1001320045084407840000080319A7284508440716
:1001420084000008C6006120C50A992840140800EE
:1001520083160313861206120610861006118611E4
:1001620083128612061286110611861006100D20C1
:100172000D200D208614061486160A2086120D20E4
:1001820086160A2086120D2086160A2086120D2057
:10019200061086160A2086120D2086160A2086125E
:1001A2008610861586160A2086120D2086110614E0
:1001B20086160A208612061086160A2086120D203E
:1001C20086160A208612061486160A2086120D202A
:1001D200061086160A20861286150615861406143F
:0C01E20086160A2086120D20401408002A
:1001EE00063083120313FB001330FC00AD30FD000C
:1001FE00FD0BFF28FC0BFF28FB0BFF280000000067
:02020E000800E6
:100210005A208A110A128000840ABE0A0319BF0AF2
:08022000F003031D082908008A
:10022800503083120313A0004930A1004330A200CC
:100238003130A3003630A4004630A5003830A6007F
:100248003830A7003730A800A9015030AA00723012
:10025800AB006130AC006330AD007430AE00693083
:10026800AF006330B0006130B100B2014D30B3006F
:100278007530B4006E30B5006430B6006F30B7002A
:10028800B8014830B9006F30BA006C30BB0061303B
:10029800BC00BD01831603178801890183128713E7
:1002A8008813A9200130C7001A200C30C7001A2073
:1002B8000130C2000630C3003930C4006920023062
:1002C800C2000630C3003330C40069201530FB007B
:1002D8004B30FC00BE30FD00FD0B7029FC0B702973
:1002E800FB0B702900000130C7001A200130C20042
:1002F8000130C3002A30C40069200230C200053032
:10030800C3002030C40069201530FB004B30FC00CE
:10031800BE30FD00FD0B8E29FC0B8E29FB0B8E29B0
:100328000000C101043041020318A0291C30C70095
:100338001A20F720C10A9629C10108304102031882
:10034800AB291830C7001A20F720C10AA129C1011A
:10035800083041020318B6291C30C7001A20F720BC
:08036800C10AAC29A029B72944
:04400E00F22F000786
:00000001FF
